:0E0000000C94A1000C9400000C9400000C94D1
:10000E0000000C9400000C9400000C9400000C9462
:10001E0000000C9400000C9400000C9400000C9452
:10002E0000000C9400000C9400000C9400000C9442
:10003E00E8000C9400000C9400000C9400000C944A
:10004E0000000C9400000C9400000C9400000C9422
:10005E0000000C9400000C9400000C9400000C9412
:10006E0000000C9400000C9400000C9400000C9402
:10007E0000000C9400000C9400000C94000010275B
:10008E00E80364000A0001000010000110000100E6
:10009E000000000000000000BC0201020408102055
:1000AE0040800000004000004041FA00FA002003AA
:1000BE00256420256420256420256400646F632058
:1000CE0076616368207472616E6700646F63207678
:1000DE006163682064656E0074696E68206E677572
:1000EE006F6E6700256420256420006461206C75A6
:1000FE00752073616E00566974726978653D25646A
:10010E0020256400256420202564200080C00A007C
:10011E0004009E0008001005A80004002005B00091
:10012E0004002405B40002002C05BC000200560594
:10013E001A010000F894EE27ECBBF1E0F5BFE5BF25
:10014E00E0936C00F8E1F1BDE1BD8DE0A2E0BB27CC
:10015E00ED938A95E9F780E090E1A0E0B1E0ED93B0
:10016E000197E9F7ECE1F1E085919591009761F047
:10017E00A591B59105901590BF01F00105900D92D6
:10018E000197E1F7FB01F0CF8BBFEFEFEDBFE0E1A1
:10019E00EEBFC0E0D5E00C94FF03AA93E881E7B967
:1001AE008BE18A95F1F7369A349BFECF349AE4B1FF
:1001BE00F5B1AFEFB3E00E94510AEA1BFB0B21969B
:1001CE000895AA93BA93EA93FA93EFB7EA93F401D8
:1001DE0031964F01E8ECF0E0E815F90511F48824AA
:1001EE009924F401A0912F05B0E0EA17FB0714F44F
:1001FE00AB9A01C0AB98F401A0913005B0E0EA17BC
:10020E00FB0714F4AC9A01C0AC98F401A09131052F
:10021E00B0E0EA17FB0714F4AD9A01C0AD98F401F3
:10022E00A0913205B0E0EA17FB0714F4AE9A01C0B4
:10023E00AE98F401A0913305B0E0EA17FB0714F471
:10024E00AF9A01C0AF98E991EFBFF991E991B991D9
:10025E00A99118950E94830A552410E0183030F5A4
:10026E00A12F9BDF9F010E943C07AE0FBF1F0E9474
:10027E00580A2E173F0748F40E944307AE0FBF1FC0
:10028E00E0E0F0E0ED93FC930CC00E944307EA0F10
:10029E00FB1F20833183E12FF0E0E05FFA4FE08116
:1002AE005E2A85E88A95F1F71F5FD8CF0E948A0AE9
:1002BE002496089560971A9310E00E944A07A0E0D2
:1002CE000E945307A1E00E945307A2E00E94530729
:1002DE00A3E00E9453070E945A070E946107A4E000
:1002EE000E945307A5E00E945307A6E00E94530701
:1002FE00A7E00E9453070E945A070E94690783993C
:10030E0004C0A0915505A03009F01EC0839903C00A
:10031E000E94A506FBCF0E947007AAECB0E00E94D7
:10032E007507173070F40E947D07EA0FFB1FFF93CD
:10033E00EF93A12F32DFAF91BF91ED93FC931F5F2F
:10034E00F0CFE1E0E09355050E944A07E0913505B4
:10035E00F09136050E948407E0913705F09138053B
:10036E000E948407E0913905F0913A050E948407B6
:10037E00E0913B05F0913C050E9484070E945A07CC
:10038E000E946107E0913D05F0913E050E948407B1
:10039E00E0913F05F09140050E948407E0914105F0
:1003AE00F09142050E948407E0914305F0914405C7
:1003BE000E9484070E945A070E946907839904C00D
:1003CE00A0915505A13009F0BEC0839917C00E94B7
:1003DE008907A9EDB0E00E947507173070F40E94EE
:1003EE008C07EA0FFB1FFF93EF93A12FD6DEAF9181
:1003FE00BF91ED93FC931F5FF0CFE7CFE2E0E09368
:10040E0055050E944A07E0914505F09146050E9468
:10041E008407E0914705F09148050E948407E0911A
:10042E004905F0914A050E948407E0914B05F09131
:10043E004C050E9484070E945A070E946107E091B2
:10044E004D05F0914E050E948407E0914F05F09105
:10045E0050050E948407E0915105F09152050E94CB
:10046E008407E0915305F09154050E9484070E9481
:10047E005A07A1E00E9494060E948907A6EEB0E0FA
:10048E000E94E206A8ECB0E00E943E0811E0173090
:10049E0008F051C00E943C07EA0FFB1FBF010E94EB
:1004AE007D07AE0FBF1F0D901C900E948C070E94FF
:1004BE009307D001AE0FBF1FFD01F695E795DB0147
:1004CE000E94680AA8ECB0E00E943E080E944A070B
:1004DE00A2E0B0E00E949807A4E0B0E00E94980766
:1004EE00A6E0B0E00E949807A8E0B0E00E9498074E
:1004FE000E945A07A0E00E949406DE0111960E9407
:10050E00D306FE013196FA93EA93E2EFF0E0FA9306
:10051E00EA93AAE0B0E00E949807ACE0B0E00E9437
:10052E0098070E949B07E0E0EA930E9469070E94E9
:10053E00A0071F5FACCF0E948907A9EFB0E00E9411
:10054E00E2060E94A00718816196089524970E94E2
:10055E00810A20E030E040E050E07CDE11E0173010
:10056E00A0F40E9443070E949307DF01E12FF0E001
:10057E0031960E940B0A2E0F3F1F0E9443070E94C6
:10058E0093074E0F5F1F1F5FEACF042E052AF9F067
:10059E00F901662777270E94B408A0E0B0E080E258
:1005AE0091E40E943E09EE83FF8368877987FA0102
:1005BE00AE81BF8188859985662777270E94B4080A
:1005CE000E948C09EE83FF836887798705C0E0E07F
:1005DE00EE83EF83E887E987EE81FF816885798571
:1005EE00A0E0B0E084E392E40E94E7080E947D0858
:1005FE000E94880A2A96089528970E94830A00E08E
:10060E0010E02AE230E0A2DF0E94A4070E94A907B0
:10061E00A0911805B091190580911A0590911B05AE
:10062E00E0E0F0E06CE072EC0E94D10920F4A091C1
:10063E001F05AA230AF406C00E94B2070E944808AA
:10064E000E94A907A0911C05B0911D0580911E0561
:10065E0090911F050E94B2070E94E708E887F9876C
:10066E006A877B870E94B207E0931C05F0931D05F5
:10067E0060931E0570931F050E94B207D8010E9459
:10068E00BB070E94C0078F01F5010E94F5090E17E6
:10069E001F0724F4F5010E94F5098F01A016B1067B
:1006AE000CF485010E94B207A0912005B09121059E
:1006BE0080912205909123050E943E097F936F93AE
:1006CE00FF93EF93F801A0912805B0912905809131
:1006DE002A0590912B050E94A4070E943E09AF9116
:1006EE00BF918F919F910E94EE087F936F93FF931E
:1006FE00EF93E885F9856A857B85A0912405B091F5
:10070E00250580912605909127050E943E09AF91FF
:10071E00BF918F919F910E94EE080E94C507F9012B
:10072E000E94F5090E94CA0738F4F9010E94F509E2
:10073E000E94A4070E94C507F9010E94CA0709F08A
:10074E0008F405C0F9010E94A4070E94C507EC81B8
:10075E00FD816E817F810E947D080E948A0A2C96FF
:10076E000895E0E2F3E0FBBDEABDF9BDE8BD44DF6C
:10077E003F01E7E9E0932E05002460147004CCF4E9
:10078E00C2980E94D207EDECFCEC6CE47FE30E9471
:10079E00D7070E944B0A0E94E7080E947B08FBBD08
:1007AE00EABD0E94D2070E94E2070E94E7070E945C
:1007BE00EE07002406140704D4F4C398F3010E9434
:1007CE00F5090E94A407DF01CB010E94E2070E94F7
:1007DE00D7070E94EE080E947B08F9BDE8BD0E9473
:1007EE00D2070E94E2070E94E7070E94EE070895D3
:1007FE006097E0E0EBBBEABBE8BBE0E6E7BBE0E01E
:10080E00E5BBE4BBEFEFE2BBE0E0E1BBE3B9E8EF51
:10081E00E2B9E0E0E0936200E0936100E0936500EE
:10082E00E0936400E0BFEAE0E3BFE0E0E2BFE3E6AE
:10083E00E1BFE3EAEFBDEBE0EEBDE0E0EDBDECBD08
:10084E00E7BDE6BDEBBDEABDE9BDE8BDE0937900CD
:10085E00E0937800E5BDE4BDE3BDEAEAE0938B00EA
:10086E00EAE1E0938A00E0E0E0938900E0938800FB
:10087E00EEE4E0938100E0938000E5E0E0938300F6
:10088E00E8ECE0938200E7E0E0938500E0EDE09392
:10089E008400E7E0E0938700E0EDE0938600E0E07F
:1008AE00E0936A00EABFE9BFE2E0E7BFE0E0E09371
:1008BE007D00EAB9E0939A00E0E8E8B9E0E0E0BD37
:1008CE00E7B9E3E8E6B9E0E0EDB9E0937400A0E142
:1008DE000E94F506E0E0E0937400D601E5E0F0E05A
:1008EE000E94260A5F017894E5DC85993BC039DFCA
:1008FE00E8ECE0932F05ECE2E0933005FE01FA936D
:10090E00EA93E4E0F1E0FA93EA93F3010E94010A1C
:10091E000E94410AE0913405FF27662777270E943F
:10092E00410A0E949B070E947007DE010E94D306B7
:10093E00FE01FA93EA93E2E1F1E0FA93EA93EAB563
:10094E00FBB50E948407E8B5F9B50E9484070E94A2
:10095E009B07E0E0EA93A1E00E949406DE010E946C
:10096E00D306C5CFC1CFFFCFBA93AA931A930A93DA
:10097E00AA81BB8112960E94390A309759F1AA8139
:10098E00BB8114960E94390A8F01309761F00230B4
:10099E00E0E01E0798F0F80131978F01AA81BB8124
:1009AE001496ED93FC93AA81BB811296ED91FD9165
:1009BE003196FE93EE933197AC81A083AA81BB81D1
:1009CE000E94390AFF232AF0ED91FD913196FE9394
:1009DE00EE9306C0AA81BB81EFEFFFEFED93FC9380
:1009EE001981088125960895BA93AA9326970E9495
:1009FE00810A10E0AC85BD85E0E0F0E0ED93FC935C
:100A0E00EA89FB893196EA8BFB8B3197E4912E2F85
:100A1E00E03009F415C1E12FE03039F4253211F43C
:100A2E0011E002C00E9404080AC1E130A9F4253287
:100A3E0019F40E94040802C112E040E000E02D32D9
:100A4E0011F401E0FCC02B3211F44BE2F8C020325D
:100A5E0011F440E2F4C002C0E23039F450E013E089
:100A6E00203311F40068EBC003C0E33009F0E7C097
:100A7E00203310F02A3308F007C0AAE05A9F502DF9
:100A8E00E22FE0535E0FDBC0E22FE33649F40E9403
:100A9E000B08E889F989A481AA930E941108CEC097
:100AAE00E33741F40E940B080E9417080E942307A7
:100ABE001E2F0AC0E03761F40E940B080E9417082F
:100ACE000E942F071E2F086002600F7730E034C09F
:100ADE00E43611F0E93611F4046002C0E53731F462
:100AEE00ECE8F0E0EE83FF8315E00CC0E83511F47E
:100AFE00086003C0E83709F0A1C0E6E9F0E0EE8334
:100B0E00FF8314E002FF14C00E940B080E9421080C
:100B1E00AB85AA233AF4EA85FB850E94F509EA879C
:100B2E00FB874DE2403011F01F5F01C00B7F04C008
:100B3E000E940B080E94210800FD11C0151778F4C1
:100B4E0007FF08C002FF04C00B7F242F115001C005
:100B5E0020E301C020E20E9404085150EFCF312F54
:100B6E0001FF17C03030A1F003FF06C0EE81FF81F8
:100B7E002591EE83FF8305C0AE81BF812D91AE839B
:100B8E00BF830E940408503009F051503150EACF13
:100B9E004BC020E3EE81FF810E943D0AE887F98772
:100BAE00EE81FF813296EE83FF83E885F985AA8573
:100BBE00BB85AE17BF0750F02F5FA885B985EA85B4
:100BCE00FB85EA1BFB0BEA87FB87EFCF2A3328F066
:100BDE0003FF02C0295F01C0295D04FD1AC0213345
:100BEE0020F4A885B985119709F409C0531710F0A0
:100BFE0000FF01C013C020E207FF0BC020E300611D
:100C0E0002FF07C00B7F4A930E941108503009F073
:100C1E0051500E940408503009F051503150A885AF
:100C2E00B985129708F0B5CF00FF08C0503031F0EB
:100C3E005150E0E2EA930E941108F8CF10E0E0CEA6
:100C4E00AC85BD850E94390A0E94880A6496089573
:100C5E00FF92F82E26970E94830A0E942908309749
:100C6E0019F4EFEFFFEF23C0DE0116960E94F10993
:100C7E008D010E942908EE83FF83E0E0E887E98773
:100C8E00DE011A960E94F1090E94390AFA93EA933C
:100C9E001A930A93EBEBF4E0FA93EA93DE011A96B9
:100CAE00A3DE9F01AE81BF81E0E0EC93F9010E94CB
:100CBE008A0A2A96FF900895AA93E881E07111F0AE
:100CCE00DB9A01C0DB98E881E07211F0DA9A01C07C
:100CDE00DA98E881E07411F0D99A01C0D998E881C8
:100CEE00E07811F0D89A01C0D8988DE08A95F1F786
:100CFE00DC9A8DE08A95F1F7DC988DE08A95F1F714
:100D0E0099C0AA93A881D8DFE881E295E883A881EB
:100D1E00D3DF85E88A95F1F78DC0AA93E881F0E0DC
:100D2E00EA5AFA4FE081A981AE0FEBDFE981E09339
:100D3E005A05E881E0935B0522960895A2E00E9491
:100D4E003008ACE0DEDFA1E00E943008E0E0E09386
:100D5E005B05E0935A050895AA93A881AA3031F055
:100D6E00E0915C05A0915A05AE1760F0E0E0EA93C1
:100D7E00A0915B05AF5FA0935B05CFDFA881AA3082
:100D8E0009F458C0E0915A05EF5FE0935A05DE9AD8
:100D9E00A881B7DFDE984EC0BA93AA931A93A981A1
:100DAE00BA81ED91A983BA831E2FE03019F0A12FDD
:100DBE00D3DFF5CF10C0BA93AA931A93E981FA81C3
:100DCE003196E983FA833197E4911E2FE03019F0C2
:100DDE00A12FC2DFF3CF188123960895AA93D39A39
:100DEE00D29AD19AD09AD49AD69AD59ADC98DE987D
:100DFE00DD98E881E0935C05E058E0935805E881C2
:100E0E00E054E09359050E94A0070E9436080E9404
:100E1E0036080E943608A0E24FDF88EC90E001977A
:100E2E00F1F7A8E26EDFA4E06CDFA5E86ADFA6E0CA
:100E3E0068DF84DF21960895BA93AA93A991B99198
:100E4E00EE27FF276D91662311F03196FBCF0895A3
:100E5E00BA93AA93AA27BB27E991F991059000208E
:100E6E0011F01196FBCFFD010895E12FA0E0B0E047
:100E7E00F0E0EE0FFF1F0895E12FA0E0B5E0F0E0E7
:100E8E00EE0FFF1F0895FE013196FA93EA93EEEBF3
:100E9E00F0E0FA93EA9308950E94D400662777272C
:100EAE000E94410A089580E10E942F066496E0E0B8
:100EBE00EA930895A0E00E949406DE0111960E9426
:100ECE00D306E1CFA1E00E949406DE0111960C94A8
:100EDE00D306E0E0EA93A0E00C9494060E94E206AA
:100EEE00A4E1B0E00E943E0811E00895E12FA5E3D1
:100EFE00B5E0F0E0EE0FFF1F0895662777270E94FA
:100F0E00410A08950E94A506E4CFE12FA5E4B5E0BD
:100F1E00F0E0EE0FFF1F0895AE0FBF1F0E94390ABB
:100F2E0008950E94580AE9CF88E00E942F062C9659
:100F3E000895A4E1B0E00C943E080E94010A0E94BC
:100F4E00B4080895E0931805F093190560931A05F7
:100F5E0070931B050895E0911805F09119056091A5
:100F6E001A0570911B0508950E94060A0E94480AF0
:100F7E0008950E94EE080E947D080895EC83FD837B
:100F8E006E837F830895AC81BD818E819F81D5DF75
:100F9E000E94D1090895F301D0DFDF01CB0108953E
:100FAE000E948C09D301E0DF0E943E09A0912C051E
:100FBE00B0912D05D9CFEAE9F9E969E97FE3089502
:100FCE000E948C09A0E0B0E084E193E4D2CFE093DC
:100FDE002E05A0912E05EAE0EA9FF001DF01E0E088
:100FEE00F1E00E94260AE0938300E0912E05AAE02C
:100FFE00EA02F001E093820008952A93AD85BE8542
:10100E00EF85F88909950895E889F9893497E88B71
:10101E00F98B0895AD85BE85EF85F88909950895FC
:10102E00A889B98914960E94390AEE83FF83AE818E
:10103E00BF810895A889B98914960E94390AEA8752
:10104E00FB870895DE011C960E94F1090E94390A61
:10105E0008950E948806A3E0B0E00C943E08A0E339
:10106E000E94630688EC90E00197F1F708951096C0
:10107E0039F080ED97E00197F1F7A8951197C9F730
:10108E00089530976040704009F0705808955523C8
:10109E0042F4503811F4E0FF04C03196691F791FF5
:1010AE006BF050E8572711F45F93CFC05F3F31F0DC
:1010BE00660F000C57956795752F08955F93002066
:1010CE000AF0CFC0C8C050E8192E1522880F991FFC
:1010DE009527550F879550E8072E0522660F771F27
:1010EE007527550F67950895689401C0E8945F932E
:1010FE00F2DF703818F07F3F08F4A7C056E1571B97
:10110E00AAF4519558300EF4593030F0EFEFFFEF4E
:10111E006FEF7FE777F91AC077275523B9F0EE0FF7
:10112E00FF1F661F771F5A95D1F710C077275830CB
:10113E0028F0EF2FF62F672F5850F9CF552331F0A7
:10114E0076956795F795E7955A95D1F700200AF4AD
:10115E0049D15F910895689401C0E894309760403A
:10116E007040B1F0002426F0772312F400943AD1A7
:10117E00172E7EE1112032F07A95EE0FFF1F661FBB
:10118E00111CF9CFEF2FF62F612D5F938ADF5F9140
:10119E0008954F93AF01FD01DA01AB01BC01CA0105
:1011AE00402D012C142E4F910895EA0FFB1F681F3E
:1011BE000895E095F0956095EF5FFF4F6F4F08959E
:1011CE005F9381DF903871F150E8152604C05F936C
:1011DE007ADF903839F1703821F1572F591B2BF1E6
:1011EE0012F4D7DFFACF583118F0AA27BB27882779
:1011FE00583028F0AB2FB82F88275850F9CF5523E9
:10120E0029F08695B795A7955A95D9F7502D512562
:10121E0072F0CBDF38F46795F795E795739513F475
:10122E0020C0B7DF3EDF5F910895D8F7FBCFEA1BF2
:10123E00FB0B680B51F010F40094BBDF662392F3A6
:10124E00EE0FFF1F661F7A95CBF7EE27FF27662757
:10125E0077275F910895EFEFFFEF6FE77FEF5F91D5
:10126E000895EFEFFFEF6FE77FE75F9108955F93CC
:10127E002ADF703851F3903841F301240894791F16
:10128E0023F41CF300203AF3ECCF0F921F932F930D
:10129E003F934F93112722279927689FA0018F9F75
:1012AE00302D410D591F6B9F300D411D591F8E9FC3
:1012BE0027D0BF9F25D06A9F23D0BE9F1DD0AF9F42
:1012CE001BD0AE9F110D291F391F491F591FE32F28
:1012DE00F42F652F522F4F913F912F911F910F9009
:1012EE0066232AF0550FEE1FFF1F661F02C073956F
:1012FE004BF2CDDE5F910895100D211D391F02C0F6
:10130E00200D311D491F591F08955F93DCDE703883
:10131E0021F411200AF49FCFA4CF903809F495CF71
:10132E0001240894970B1BF4D4F30020F3CF792FEC
:10133E001F932F933F934F93112411272227332767
:10134E004427552790E2AE17BF078607410730F0B6
:10135E00AE1BBF0B860B410B089401C08894551F22
:10136E00221F331F111CAA1FBB1F881F441F9A95D3
:10137E0051F7F901612D4F913F912F911F916623E6
:10138E0032F0550FEE1FFF1F661F7A9543F27FDE78
:10139E005F91089599239AF0772342F0971748F0BA
:1013AE0029F4AE17BF07860720F031F09894889481
:1013BE00089598940894089518948894089577231E
:1013CE00C2F7971798F3A9F7EA17FB07680788F390
:1013DE0099F3ECCF0024AF0DB01D0895F195E19572
:1013EE00F0400895F09560957095E195FF4F6F4F21
:1013FE007F4F08956F2F660F660B762F08958B2FF4
:10140E00880F880B982F0895FA9FF02DEB9FF00D03
:10141E00EA9FE02DF10D08950024112490E1AA0F0A
:10142E00BB1F001C111C0E1A1F0A18F40E0E1F1ED5
:10143E0001C0A1609A9599F7FD01D001089504D0DD
:10144E00EBDF0EF4CBDF0895E894F7FF02C0C6DFA2
:10145E006894B7FF06C0A095B095119600F8039456
:10146E0000FA0895ED91FC91119708950590F4916D
:10147E00E02D08957A936A93FA93EA930895689407
:10148E0001C0E89401D06ADE182E862F612D192E28
:10149E00972F712D1B2EBF2FF12D1A2EAE2FE12D52
:1014AE000895119602D0FE2F1197E199FECFFF936A
:1014BE00FFB7F894AEBBBFBBE09AEDB3FFBFFF9191
:1014CE00089507D01196EF93EF2F03D0EF91119758
:1014DE000895E19B02C0A895FCCF9FB7F894AEBBD0
:1014EE00BFBBE09A8DB3E81719F0EDBBE29AE19A13
:1014FE009FBF08955A934A933A932A931A930A9345
:10150E0008955D814C813B812A811981088108955E
:00000001FF
